:020000040800F2
:10000000B80F0020B129000801040008030400080B
:10001000070400080B0400080F040008000000009B
:1000200000000000000000000000000013040008B1
:100030001504000800000000170400081904000857
:10004000CB290008CB290008CB290008CB290008C0
:10005000CB290008CB290008B71C0008631D000845
:100060000F1E0008CB290008CB290008CB29000867
:10007000CB290008CB290008CB290008CB29000890
:10008000CB290008CB290008CB290008CB29000880
:10009000CB290008CB290008CB290008BB1E00088B
:1000A000CB290008CB290008CB290008CB29000860
:1000B000FD080008CB290008CB290008CB2900083F
:1000C000CB290008CB290008CB290008CB29000840
:1000D000CB29000827290008CB290008CB290008D4
:1000E000CB290008CB290008CB290008CB29000820
:1000F000CB290008CB290008CB290008CB29000810
:10010000CB290008CB290008CB290008CB290008FF
:10011000CB290008CB290008B7200008CB2900080C
:10012000CB290008CB290008CB290008CB290008DF
:1001300000F002F800F05AF80AA090E8000C82449F
:100140008344AAF10107DA4501D100F04FF8AFF27C
:10015000090EBAE80F0013F0010F18BFFB1A43F0A5
:1001600001031847D8530000F85300000A444FF029
:10017000000C10F8013B13F0070408BF10F8014B06
:100180001D1108BF10F8015B641E05D010F8016B4B
:10019000641E01F8016BF9D113F0080F1EBF10F8AF
:1001A000014BAD1C0C1B09D16D1E58BF01F801CBD2
:1001B000FAD505E014F8016B01F8016B6D1EF9D555
:1001C0009142D6D37047000000230024002500266A
:1001D000103A28BF78C1FBD8520728BF30C148BFAA
:1001E0000B6070471FB51FBD10B510BD04F0CEF9F0
:1001F0001146FFF7F7FF00F038F804F000FA03B4F7
:10020000FFF7F2FF03BC02F033FB000010B554A06F
:1002100004F07EF94FF4967002F0FDFA53A004F05A
:1002200077F94FF47A7002F0F6FA54A004F070F9FE
:100230004FF4E16002F0EFFA5AA004F069F94FF4CC
:10024000E16002F0E8FA61A004F062F940F2E930FE
:1002500002F0E1FA61A004F05BF940F2E93002F04B
:10026000DAFA62A004F054F910BD70B5002402F06F
:1002700095FA02F049F84FF4E13002F008FB0A2148
:100280000C2000F0F4F9472140F2E73001F0E3FEE2
:100290004FF4A06002F0ACFB022000F06FFF0120E1
:1002A00000F06CFF002000F069FF032000F066FF03
:1002B0004BE00521002001F04DFF05464E4904F0BA
:1002C00095FF18D20521042001F044FF05464A4954
:1002D00004F08CFF0FD20521012001F03BFF054601
:1002E000464905F083F806D2012000F047FF0320BD
:1002F00000F044FF641C0521002001F02BFF05469F
:100300003E4905F073F81AD20521042001F022FFBE
:1003100005463A4905F06AF811D20521012001F09D
:1003200019FF0546344904F061FF08D2002000F0AF
:1003300025FF032C02D0032000F020FF641C042CB6
:1003400003D1052000F01AFF00E0B2E700BF4FF430
:1003500016730322E221104600F083FB002070BDDB
:1003600041542B5253540D0A0000000041542B43BA
:10037000574D4F44453D320D0A00000041542B4378
:10038000575341503D2236353536363635363522CF
:100390002C223132333435363738222C31312C335C
:1003A0000D0A000041542B43495053544152543DCF
:1003B00022544350222C223139322E3136382E34F9
:1003C0002E32222C383038300D0A000041542B4395
:1003D00049504D4F44453D310D0A000041542B43D7
:1003E000495053454E440D0A00000000BFAACABC44
:1003F000B5F7BDDA0D0A00000000C843000016443E
:10040000704700BFFEE700BFFEE700BFFEE700BF8A
:10041000FEE7704770477047704700000CB500203A
:10042000019000906C48006840F480306A49086090
:1004300000BF6948006800F4003000900198401C3B
:100440000190009818B90198B0F5A06FF1D16248F9
:10045000006800F4003010B10120009001E000209D
:1004600000900098012843D15C48006840F01000DB
:100470005A4908600846006820F0030008600846F2
:10048000006840F0020008605348406852494860E4
:100490000846406848600846406840F4806048600C
:1004A0000846406820F47C1048600846406840F4E4
:1004B000E81048600846006840F08070086000BF9F
:1004C0004548006800F000700028F9D042484068B4
:1004D00020F00300404948600846406840F00200B0
:1004E000486000BF3C48406800F00C000828F9D183
:1004F0000CBD10B5FFF792FF10BD10B5364800686F
:1005000040F001003449086008464068344908401A
:100510003149486008460068324908402E49086061
:100520000846006820F4802008600846406820F4EF
:10053000FE0048604FF41F008860FFF7DAFF4FF0BD
:1005400000602949086010BD10B50021002000227C
:10055000214B5B6803F00C0121B1042906D0082966
:1005600028D107E0214B224C236027E01F4B204C71
:10057000236023E0184B5B6803F47010164B5B6834
:1005800003F48032022303EB904022B9194B43431A
:10059000174C23600DE0104B5B6803F4003323B16C
:1005A000144B4343124C236003E0104B4343104C65
:1005B000236003E00D4B0E4C236000BF00BF064BD1
:1005C0005B68C3F303130C4CE15C094B1B68CB4025
:1005D000074C236010BD00000010024000200240C4
:1005E0000000FFF8FFFFF6FE08ED00E000127A00C1
:1005F0000000002000093D000400002008B5012192
:100600001C2002F07FFD3320ADF8000010208DF893
:10061000030003208DF802006946C14802F0B6FAD3
:100620003321BF4802F061FB0720ADF80000102025
:100630008DF8030003208DF802006946B94802F0E6
:10064000A5FA0721B74802F04EFB2020ADF80000C4
:1006500010208DF8030003208DF802006946B2488F
:1006600002F094FA2021B04802F03DFB08BD7FB5AE
:1006700005460C460121084602F051FDADF8085030
:10068000ADF804400020ADF80A00ADF8060001A95D
:100690004FF0804003F072F801221146900703F0FA
:1006A000E4FB1C208DF8000000208DF801008DF87F
:1006B000020001208DF80300684602F09EF9012136
:1006C000880703F0B7FBFFF799FF7FBD10B5002245
:1006D00000EB4003954C44F8232000EB400304EB6F
:1006E00083035A6000EB4002234653F8222002EBBA
:1006F000410200EB400304EB83035A6010BD00EBA2
:1007000040028A4B03EB8202916070478749C96AB5
:1007100099B38649C96AB0FBF1F201FB120161BBD2
:1007200082494A6A896A8A4211DA0021804A116044
:100730007E49C96AB0FBF1F101F001017D4AC2F8BE
:1007400094117A49496A491C784A516215E07749FF
:100750004A6A896A8A4210DD0121754A116073492B
:10076000C96AB0FBF1F101F00101724AC2F89411BB
:100770006E49496A491E6D4A516270476B49096A60
:1007800099B36A49096AB0FBF1F201FB120161BB3E
:1007900066498A69C9698A4211DA0021664A11608C
:1007A0006249096AB0FBF1F101F00101614AC2F846
:1007B00090115E498969491C5C4A916115E05B4969
:1007C0008A69C9698A4210DD01215B4A1160574973
:1007D000096AB0FBF1F101F00101564AC2F890112B
:1007E00052498969491E514A916170474F49496987
:1007F000A9B34E494969B0FBF1F201FB120171BB8B
:100800004A49CA6809698A4212DA00214A4A121F13
:10081000116046494969B0FBF1F101F00101454A17
:10082000C2F884114149C968491C404AD16016E0A8
:100830003E49CA6809698A4211DD01213E4A121FF8
:1008400011603A494969B0FBF1F101F00101394AFF
:10085000C2F884113549C968491E344AD1607047CD
:1008600032498968B9B331498968B0FBF1F201FBBB
:10087000120181BB2D4909682C4A5268914212DA53
:1008800000212D4A083A116028498968B0FBF1F12E
:1008900001F00101274AC2F8801124490968491C66
:1008A000224A116017E021490968204A52689142A2
:1008B00011DD0121204A083A11601C498968B0FB0A
:1008C000F1F101F001011B4AC2F8801117490968D2
:1008D000491E164A1160704700B518480068FFF7B6
:1008E000BFFF16480068FFF781FF14480068FFF754
:1008F00045FF12480068FFF709FF00BD10B5012150
:10090000880703F060FD30B1FFF7E6FF0B48006891
:10091000401C0A4908600121880703F065FD10BDED
:1009200000080140000C0140001001406008002058
:1009300094012242000021428881214214000020BB
:100940002DE9F04105460C460026062D6AD2DFE867
:1009500005F003142536475821460020FFF7B6FE60
:1009600021460120FFF7B2FE61420220FFF7AEFEF2
:1009700061420320FFF7AAFE54E061420020FFF726
:10098000A5FE61420120FFF7A1FE21460220FFF7EC
:100990009DFE21460320FFF799FE43E021460020FB
:1009A000FFF794FE61420120FFF790FE21460220EE
:1009B000FFF78CFE61420320FFF788FE32E06142C0
:1009C0000020FFF783FE21460120FFF77FFE6142F2
:1009D0000220FFF77BFE21460320FFF777FE21E090
:1009E00061420020FFF772FE61420120FFF76EFEB8
:1009F00061420220FFF76AFE61420320FFF766FEB4
:100A000010E021460020FFF761FE21460120FFF79C
:100A10005DFE21460220FFF759FE21460320FFF725
:100A200055FE00BF00BF002616E0F84850F82670BB
:100A3000022001F0F0FE39460020FFF760FE394643
:100A40000120FFF75CFE39460220FFF758FE3946C9
:100A50000320FFF754FE761CB6F5FE7FE5DDBDE80A
:100A6000F0812DE9F04705460F4690461C460026CA
:100A7000062D6AD2DFE805F00314253647582146D3
:100A80000020FFF723FE21460120FFF71FFE6142F1
:100A90000220FFF71BFE61420320FFF717FE54E020
:100AA00061420020FFF712FE61420120FFF70EFEB7
:100AB00021460220FFF70AFE21460320FFF706FE2B
:100AC00043E021460020FFF701FE61420120FFF7CD
:100AD000FDFD21460220FFF7F9FD61420320FFF7EB
:100AE000F5FD32E061420020FFF7F0FD21460120D4
:100AF000FFF7ECFD61420220FFF7E8FD21460320ED
:100B0000FFF7E4FD21E061420020FFF7DFFD6142D5
:100B10000120FFF7DBFD61420220FFF7D7FD6142B4
:100B20000320FFF7D3FD10E021460020FFF7CEFDA4
:100B300021460120FFF7CAFD21460220FFF7C6FD2E
:100B400021460320FFF7C2FD00BF00BF002616E0CC
:100B5000AE4850F82690404601F05DFE4946002020
:100B6000FFF7CDFD49460120FFF7C9FD49460220A8
:100B7000FFF7C5FD49460320FFF7C1FD761CBE42C5
:100B8000E6DBBDE8F0872DE9F04705460F469046C5
:100B90001C460026062D6AD2DFE805F00314253630
:100BA000475821460020FFF791FD21460120FFF71D
:100BB0008DFD61420220FFF789FD61420320FFF7AE
:100BC00085FD54E061420020FFF780FD6142012075
:100BD000FFF77CFD21460220FFF778FD2146032028
:100BE000FFF774FD43E021460020FFF76FFD6142EF
:100BF0000120FFF76BFD21460220FFF767FD6142F0
:100C00000320FFF763FD32E061420020FFF75EFD45
:100C100021460120FFF75AFD61420220FFF756FDF1
:100C200021460320FFF752FD21E061420020FFF73B
:100C30004DFD61420120FFF749FD61420220FFF7AF
:100C400045FD61420320FFF741FD10E021460020F1
:100C5000FFF73CFD21460120FFF738FD2146022029
:100C6000FFF734FD21460320FFF730FD00BF00BF32
:100C7000002616E0654850F82690404601F0A7FD92
:100C800049460020FFF73BFD49460120FFF737FDAD
:100C900049460220FFF733FD49460320FFF72FFDA9
:100CA000761CBE42E6DBBDE8F08770B505460C4613
:100CB0001646062D6AD2DFE805F00314253647589C
:100CC00021460020FFF702FD21460120FFF7FEFC30
:100CD00061420220FFF7FAFC61420320FFF7F6FCB5
:100CE00054E061420020FFF7F1FC61420120FFF770
:100CF000EDFC21460220FFF7E9FC21460320FFF727
:100D0000E5FC43E021460020FFF7E0FC61420120C2
:100D1000FFF7DCFC21460220FFF7D8FC61420320EC
:100D2000FFF7D4FC32E061420020FFF7CFFC214600
:100D30000120FFF7CBFC61420220FFF7C7FC2146F0
:100D40000320FFF7C3FC21E061420020FFF7BEFC57
:100D500061420120FFF7BAFC61420220FFF7B6FCB6
:100D600061420320FFF7B2FC10E021460020FFF7AC
:100D7000ADFC21460120FFF7A9FC21460220FFF728
:100D8000A5FC21460320FFF7A1FC00BF00BF3146B0
:100D90000020FFF7B4FC31460120FFF7B0FC3146DC
:100DA0000220FFF7ACFC31460320FFF7A8FC70BD22
:100DB0002DE9F04106460C46062E6DD2DFE806F01E
:100DC000031428394A5B21460020FFF77FFC2146A7
:100DD0000120FFF77BFC61420220FFF777FC6142B4
:100DE0000320FFF773FC57E061420020FFF76EFC21
:100DF00061420120FFF76AFC21460220FFF766FCF2
:100E000021460320FFF762FC46E0000018000020A6
:100E100021460020FFF75AFC61420120FFF756FCF3
:100E200021460220FFF752FC61420320FFF74EFCEF
:100E300032E061420020FFF749FC21460120FFF724
:100E400045FC61420220FFF741FC21460320FFF7E9
:100E50003DFC21E061420020FFF738FC61420120A7
:100E6000FFF734FC61420220FFF730FC61420320AF
:100E7000FFF72CFC10E021460020FFF727FC21465D
:100E80000120FFF723FC21460220FFF71FFC21462B
:100E90000320FFF71BFC00BF00BF40F2FD151CE064
:100EA000F44850F8257050F8257050F8257050F827
:100EB0002570142001F08BFC39460020FFF71FFC41
:100EC00039460120FFF71BFC39460220FFF717FCCB
:100ED00039460320FFF713FC6D1E002DE0DCBDE852
:100EE000F0812DE9F04706460F4690461C46062E37
:100EF0006AD2DFE806F00314253647582146002061
:100F0000FFF7E4FB21460120FFF7E0FB61420220EE
:100F1000FFF7DCFB61420320FFF7D8FB54E061429E
:100F20000020FFF7D3FB61420120FFF7CFFB2146F2
:100F30000220FFF7CBFB21460320FFF7C7FB43E06E
:100F400021460020FFF7C2FB61420120FFF7BEFBF4
:100F500021460220FFF7BAFB61420320FFF7B6FBF0
:100F600032E061420020FFF7B1FB21460120FFF78C
:100F7000ADFB61420220FFF7A9FB21460320FFF7EA
:100F8000A5FB21E061420020FFF7A0FB61420120A8
:100F9000FFF79CFB61420220FFF798FB61420320B0
:100FA000FFF794FB10E021460020FFF78FFB21465E
:100FB0000120FFF78BFB21460220FFF787FB21462C
:100FC0000320FFF783FB00BF00BF3D461CE0A9489C
:100FD00050F8259050F8259050F8259050F825901D
:100FE000404601F0F4FB49460020FFF788FB4946E4
:100FF0000120FFF784FB49460220FFF780FB4946AA
:101000000320FFF77CFB6D1E002DE0DCBDE8F087C0
:101010002DE9F04706460F4690461C46062E6AD23A
:10102000DFE806F003142536475821460020FFF775
:101030004DFB21460120FFF749FB61420220FFF7EB
:1010400045FB61420320FFF741FB54E06142002071
:10105000FFF73CFB61420120FFF738FB21460220ED
:10106000FFF734FB21460320FFF730FB43E0214626
:101070000020FFF72BFB61420120FFF727FB2146F1
:101080000220FFF723FB61420320FFF71FFB32E042
:1010900061420020FFF71AFB21460120FFF716FBF3
:1010A00061420220FFF712FB21460320FFF70EFBEF
:1010B00021E061420020FFF709FB61420120FFF7B8
:1010C00005FB61420220FFF701FB61420320FFF7AD
:1010D000FDFA10E021460020FFF7F8FA2146012032
:1010E000FFF7F4FA21460220FFF7F0FA2146032029
:1010F000FFF7ECFA00BF00BF3D461CE05D4850F82A
:10110000259050F8259050F8259050F825904046AD
:1011100001F081FB49460020FFF7F1FA4946012022
:10112000FFF7EDFA49460220FFF7E9FA49460320A6
:10113000FFF7E5FA6D1E002DE0DCBDE8F08700202A
:101140004D4949684C4A1268914200D0012012E092
:1011500049494968484A126891420CD10021464ADF
:1011600051601160002244490A61CA60CA618A6103
:101170008A624A6200200028EAD170472DE9F04FC8
:1011800085B081460026B9F1060F72D2DFE819F06A
:1011900006003F016D02BD02330304040521002057
:1011A00000F0D8FF0746354904F020F808D30521A0
:1011B000042000F0CFFF0746304904F017F808D2AA
:1011C0004CF250330122E2210020FFF74AFC0125B6
:1011D00017E00521002000F0BDFF0746274904F075
:1011E00005F908D90521042000F0B4FF074623497A
:1011F00004F0FCF805D84CF250310020FFF7A0FBBA
:1012000000251D4840681C490968884200D0012615
:10121000F9E01B48006818B11948001F006898BB26
:101220000521002000F096FF0746144904F0DEF87F
:101230002BD20521022000F08DFF0746114903F053
:10124000D5FF08D30521032000F084FF07460D4990
:1012500003F0CCFFDCD24CF250330322F02100200B
:10126000FFF7D6FE01F06CF80020FFF787FF00269D
:10127000C9E049E218000020600800200000164480
:101280003081234200007042FFE70521002000F07A
:1012900061FF0746FE4903F0A9FF52D20521042051
:1012A00000F058FF0746FA4903F0A0FF49D2052194
:1012B000012000F04FFF0746F64904F097F840D2AE
:1012C000F5BB022001F0A7FA0521002000F042FF43
:1012D0000746EF4903F08AFF9AD20521042000F067
:1012E00039FF0746EA4903F081FF91D20521012029
:1012F00000F030FF0746E74904F078F888D2002D67
:1013000086D140F2FD1417E0E34850F82400049021
:10131000022001F05CFA00200499FFF7F0F90120A7
:101320000499FFF7ECF902200499FFF7E8F903208C
:101330000499FFF7E4F9641EE12CE5DC022562E084
:10134000FFE70521002000F005FF0746D34903F021
:101350004DFF08D30521042000F0FCFE0746CF49CD
:1013600003F044FF4FD20521012000F0F3FE0746B1
:10137000C84904F03BF846D2022001F04CFA05219E
:10138000002000F0E7FE0746C44903F02FFF08D312
:101390000521042000F0DEFE0746C04903F026FFC9
:1013A00031D20521012000F0D5FE0746B94904F0ED
:1013B0001DF828D2E12417E0B74850F82400049023
:1013C000022001F004FA00200499FFF798F90120A7
:1013D0000499FFF794F902200499FFF790F903208C
:1013E0000499FFF78CF9641E002CE5DC0026002030
:1013F000AB49486008600021A9480161C160C16132
:10140000816181624162002E7FF403AF47E30521D1
:10141000012000F09FFE07469D4903F0E7FE1AD227
:101420000521002000F096FE07469A4903F0DEFFF2
:1014300008D30521042000F08DFE0746954903F0EE
:10144000D5FF08D24CF250330122E2211046FFF7BB
:1014500008FB01250EE00521012000F07BFE074678
:101460008B4903F0C3FF05D84CF250310120FFF740
:1014700067FA00258A48406889490968884200D08F
:101480000126EEE08748006818B18648001F006812
:1014900040BB0521012000F05DFE07467C4903F0BA
:1014A000A5FF1FD20521022000F054FE07467E4909
:1014B00003F09CFE08D30521032000F04BFE0746F5
:1014C000794903F093FEDCD24CF250330322F02131
:1014D0000120FFF79DFD00F033FF0120FFF74EFED6
:1014E0000026BEE00521002000F034FE07466949D1
:1014F00003F07CFF53D20521042000F02BFE0746A9
:10150000644903F073FF4AD20521012000F022FE56
:1015100007465F4903F06AFE41D2EDBB022001F0AD
:101520007AF90521002000F015FE0746594903F01D
:101530005DFFA6D20521042000F00CFE07465549A8
:1015400003F054FF9DD20521012000F003FE074661
:101550004F4903F04BFE21D2002D1FD140F2FD1464
:1015600017E04D4850F824000490022001F02FF9B4
:1015700000200499FFF7C3F801200499FFF7BFF892
:1015800002200499FFF7BBF803200499FFF7B7F88E
:10159000641EE12CE5DC00E001E0022561E00521AC
:1015A000002000F0D7FD07463A4903F01FFF58D24C
:1015B0000521042000F0CEFD0746364903F016FF52
:1015C0004FD20521012000F0C5FD0746374903F041
:1015D0000DFE46D2022001F01EF90521002000F088
:1015E000B9FD07462B4903F001FF3AD2052104203B
:1015F00000F0B0FD0746274903F0F8FE31D205217F
:10160000012000F0A7FD0746284903F0EFFD28D28E
:10161000E12417E0204850F824000490022001F053
:10162000D6F800200499FFF76AF801200499FFF723
:1016300066F802200499FFF762F803200499FFF787
:101640005EF8641E002CE5DC00260020144948608A
:101650000860002112480161C160C161816181623D
:101660004162002E7FF40EAF19E24FF4C8630622E8
:10167000F0210220FFF7F5F9FFF761FD23224CF27C
:1016800050310220FFF711FB0548406804490FE084
:101690000000164400004844180000200000A0424A
:1016A0006008002030812342000070420000FA42AE
:1016B0000968884200D0012615E0FB48006890B90F
:1016C000052001F0A8F8F848006860B90020F74943
:1016D000486008600021F5480161C160C161816115
:1016E000816241620026002EE7D123224FF4FA6185
:1016F0000220FFF7DAFAFFF722FD4CF25033012205
:10170000F0210220FFF784FCC9E14FF47A53032251
:10171000D2210220FFF7A5F9E4484068E3490968AF
:10172000884200D0012643E0DF480068E8B1DE4887
:10173000001D0068C8B915E0DB48006890B90520B5
:1017400001F069F8D848006860B90020D7494860BE
:1017500008600021D5480161C160C1618161816279
:1017600041620026002EE7D123E0CF480068F8B997
:10177000CD48001D0068D8B117E0CB48001D0068B7
:1017800098B9052001F047F8C748001D006860B906
:101790000020C649486008600021C4480161C1605A
:1017A000C1618161816241620026002EE5D100E0C5
:1017B000BAE700BF3C2240F229210220FFF775FA68
:1017C000FFF7BDFC2D2240F229210220FFF76DFA20
:1017D000FFF7B5FC232240F229210220FFF765FA2A
:1017E000FFF7ADFC4CF2503301224FF4AA710220F6
:1017F000FFF70EFC53E179E00521042000F0AAFC7C
:1018000003900521002000F0A5FC0290DDE9021004
:1018100003F01EFE0746002103F0E8FD08D2DDE9D3
:10182000021003F015FE0746A14903F0DFFC11D3B7
:10183000DDE9021003F00CFE07469E4903F0D6FDD9
:1018400009D2DDE9021003F003FE0746002103F090
:10185000CDFC00D84BE09448001D0068012800D161
:1018600045E09549029803F0C1FD00D23FE0DDE973
:10187000021003F0EDFD0746904903F0B7FD16D8BE
:10188000DDE9021003F0E4FD009003F01FFB824647
:101890008B4A8C4B03F032F9074603F0EDF8034610
:1018A0000A22C82101900520FFF76DF91EE0DDE94D
:1018B000021003F0CDFD07467E4903F097FC15D8D2
:1018C000DDE9020103F0C4FD009003F0FFFA0746D2
:1018D0007B4A7C4B03F012F9824603F0CDF80346B5
:1018E0000A22C82101900420FFF74DF984E700BFC8
:1018F0004FE00521002000F02DFC02907249029873
:1019000003F074FD05D27149029803F06FFC00D218
:1019100040E06548001D0068012800D13AE06649B2
:10192000029803F063FD00D234E06749029803F0A7
:101930005DFC17D26649029803F058FD12D2644943
:10194000029803F085FD8246594903F083FC8046E6
:1019500003F018FC07463B460A22C8210120FFF786
:1019600012F916E05949029803F040FD11D2574987
:10197000029803F06DFD82464D4903F06BFC8046F2
:1019800003F000FC07463B460A22C8210020FFF76F
:10199000FAF8AEE700BF82E00420FFF7EFFB424811
:1019A000001D006830B94B4B06224FF4AA7103208A
:1019B000FFF757F83D4840683C490968884200D025
:1019C000012668E00521042000F0C4FB03900521F6
:1019D000002000F0BFFB02903348001D0068012882
:1019E00015D1022000F017FF2F48001D00680128C4
:1019F00051D1002600202D494860086000212B4865
:101A00000161C160C16181618162416245E0264836
:101A100008300068F0B90A2000F0FDFE22480830C6
:101A20000068C0BB002021494860086000211F48B1
:101A30000161C160C1618161816241624CF25033D8
:101A40000122F0210320FFF7E3FA0520FFF796FBC0
:101A5000002620E02049039803F0C8FB04D31E4968
:101A6000029803F0C3FB16D20020104948600860BA
:101A700000210E480161C160C161816181624162E2
:101A80004CF250330322F0211046FFF7C1FA052033
:101A9000FFF774FB0026002E94D100BF00BF00BFEB
:101AA00005B0BDE8F08F00001481234260080020DB
:101AB0000000A040000020C10000C84300002041F9
:101AC0009A9999999999F13F0000344200008C420B
:101AD0000000F041007102000000C84108B501217A
:101AE000702001F00FFB0220ADF8000010208DF8EF
:101AF000030003208DF802006946FE4801F046F815
:101B00000221FC4801F0F1F80120ADF8000069461F
:101B1000F94801F03BF80121F74801F0E6F802200E
:101B2000ADF800006946F54801F030F80221F348AD
:101B300001F0DBF80820ADF800006946ED4801F03F
:101B400025F80821EB4801F0D0F81020ADF800008E
:101B50006946E84801F01AF81021E64801F0C5F896
:101B600008BD1FB50121702001F0CCFA0120ADF8AD
:101B7000000028208DF803006946DE4801F006F8D1
:101B80000220ADF8000028208DF803006946DA48ED
:101B900000F0FCFF0420ADF8000028208DF80300C1
:101BA0006946D64800F0F2FF2020ADF8000028205A
:101BB0008DF803006946CF4800F0E8FF4020ADF8FB
:101BC000000028208DF803006946CA4800F0DEFFB7
:101BD0000121084601F096FA0021042001F0ECF8FA
:101BE0000120029000208DF80C0010208DF80D00CF
:101BF00001208DF80E0002A802F008FC012103204C
:101C000001F0DAF80220029002A802F0FFFB0221A4
:101C1000084601F0D1F80420029002A802F0F6FB79
:101C20000521042001F0C8F82020029002A802F04B
:101C3000EDFB0621042001F0BFF84020029002A82D
:101C400002F0E4FB06208DF8040000208DF805006A
:101C50008DF8060001208DF8070001A800F0CDFEE8
:101C600007208DF8040000208DF805008DF806008F
:101C700001208DF8070001A800F0BFFE08208DF8B4
:101C8000040000208DF805008DF8060001208DF875
:101C9000070001A800F0B1FE17208DF80400002015
:101CA0008DF805008DF8060001208DF8070001A8C9
:101CB00000F0A3FE1FBD2DE9FF5F012002F00CFC28
:101CC00001284CD18E48006868BB8E48006803F03C
:101CD000FDF882468B468C49888C02F0FCFE8046DB
:101CE00000228A4B02F070FD04460D4688480068C9
:101CF00002F0F1FE064622462B4602F0BDFC52469B
:101D00005B46CDE9000102F0F7FFCDE9020102F0E8
:101D100081FC7C4908607F497A48006803F09AFAA0
:101D20007D49086018E07849888C02F0D4FE80462E
:101D30000022764B02F048FD06460F4674480068C4
:101D400002F0C9FE824632463B4602F095FC04464C
:101D500002F060FC6B490860012002F0CEFBBDE898
:101D6000FF9F2DE9FF5F022002F0B6FB01284CD156
:101D70006A48006868BB6A48006803F0A7F88246B2
:101D80008B466149888C02F0A6FE804600225F4B9C
:101D900002F01AFD04460D465D48006802F09BFE05
:101DA000064622462B4602F067FC52465B46CDE9CA
:101DB000000102F0A1FFCDE9020102F02BFC58491D
:101DC000086054495648006803F044FA55490860D1
:101DD00018E04D49888C02F07EFE804600224B4B75
:101DE00002F0F2FC06460F464948006802F073FE16
:101DF000824632463B4602F03FFC044602F00AFCB3
:101E000047490860022002F078FBBDE8FF9F2DE9FA
:101E1000FF5F042002F060FB01284CD142480068BB
:101E200068BB4248006803F051F882468B46364949
:101E3000888C02F050FE80460022344B02F0C4FC35
:101E400004460D463248006802F045FE064622462A
:101E50002B4602F011FC52465B46CDE9000102F030
:101E60004BFFCDE9020102F0D5FB3049086029495A
:101E70002E48006803F0EEF92D49086018E0224969
:101E8000888C02F028FE80460022204B02F09CFC49
:101E900006460F461E48006802F01DFE8246324686
:101EA0003B4602F0E9FB044602F0B4FB1F49086020
:101EB000042002F022FBBDE8FF9F2DE9FF5F2020F8
:101EC00002F00AFB012872D10D481430006898BB5B
:101ED0001848006802F0FAFFCDE902010A49888C2F
:101EE00002F0F9FD80460022084B02F06DFC064628
:101EF0000F4622E00018014000140140001001408C
:101F0000000123421C0800200010004000408F40C8
:101F10001408002000002A431808002004812242EF
:101F20002408002020080020080122422C0800205C
:101F300028080020340800201BE0E248006802F076
:101F4000CAFD32463B46CDE9000102F095FB04464E
:101F5000DDE9022302F0D0FE824602F05BFBDA49A3
:101F60000860DA49D848006803F074F9D849086075
:101F700018E0D849888C02F0AEFD82460022D64B8C
:101F800002F022FC06460F46CE48006802F0A3FD90
:101F9000804632463B4602F06FFB044602F03AFBB5
:101FA000C9490860202002F0A8FA52E0FFE740206B
:101FB00002F092FA01284CD1C848006868BBC848B2
:101FC000006802F083FF04460D46C249888C02F087
:101FD00082FD0022C04BCDE9000102F0F5FB8046F6
:101FE0008946B848006802F076FD064642464B46F0
:101FF00002F042FB824622462B4602F07DFECDE9EE
:10200000020102F007FBB6490860B049B448006815
:1020100003F020F9B349086018E0AE49888C02F05B
:102020005AFD06460022AC4B02F0CEFB04460D469C
:10203000A448006802F04FFD804622462B4602F07D
:102040001BFB824602F0E6FAA5490860402002F038
:1020500054FABDE8FF9F7FB505460C4601211020CC
:1020600001F05DF8ADF80850ADF804400020ADF87F
:102070000A00ADF8060001A9964801F07FFB012295
:102080001146944801F0F1FE36208DF80000002042
:102090008DF801008DF8020001208DF803006846DC
:1020A00000F0ABFC01218B4801F0C4FEFFF759FDA5
:1020B000FFF714FD7FBD10B50121864802F083F9BA
:1020C00040B10121834802F08FF97E480068401C2E
:1020D0007C49086010BD10B5012080496C31086052
:1020E000142000F074FB00207F49C1F8840110BD6A
:1020F00010B501207D490860142000F068FB002025
:102100007B49C1F8800110BD10B5012079490860F4
:10211000142000F05CFB00207749C1F8840110BD59
:1021200010B501206D4974310860142000F04FFB98
:1021300000206D49C1F88C0110BD10B50120674920
:1021400078310860142000F042FB00206649C1F895
:10215000900110BD2DE9F04F87B082460D464FF03B
:102160000008C146BAF1050F4DD2DFE80AF0034D71
:1021700052575C0000240AE0042000F04CFBFFF7FB
:10218000DCFF5848006802A941F82400641CAC42F6
:10219000F2DB002413E002AA52F8241052F82800BF
:1021A00003F024F801D2A04608E002AA52F8241055
:1021B00052F8290003F01AF900D2A146641CAC427F
:1021C000E9DB002634460BE0444507D04C4505D0FA
:1021D00002A850F8240002A941F82600641C761CCD
:1021E000AC42F1DBA81E02F0E9FF0190DDE902013B
:1021F00002F098FE0090049902F094FE8346019943
:1022000002F0FEFE074658E0FFF765FF3B4807680F
:1022100053E0FFF76DFF3A4807684EE0FFF774FFA1
:102220003848076849E000240AE0042000F0F3FA87
:10223000FFF776FF2648006802A941F82400641CD5
:10224000AC42F2DB002413E002AA52F8241052F848
:10225000280002F0CBFF01D2A04608E002AA52F803
:10226000241052F8290003F0C1F800D2A146641CE2
:10227000AC42E9DB002634460BE0444507D04C4530
:1022800005D002A850F8240002A941F82600641CD9
:10229000761CAC42F1DBA81E02F090FF0190DDE954
:1022A000020102F03FFE0090049902F03BFE8346DB
:1022B000019902F0A5FE074600BF00BF384607B0EF
:1022C000BDE8F08F140800203408002000002A43E5
:1022D000300800200010004000408F4018012342C9
:1022E0003C08002038080020000023428081224260
:1022F000008022428401224200002242180800206D
:10230000200800202808002008B50121802000F0C6
:10231000F9FE41F6FE00ADF8000028208DF803001C
:1023200003208DF802006946044800F02FFC41F6B6
:10233000FE01024800F0D7FC08BD0000001C01406F
:102340002DE9FF5F0120039022E24FF00009FC48D5
:102350000068F0B9FA480C380068D0B9F848001F96
:102360000068B0B9F6480838006890B90A2000F053
:1023700052FAF348006860B9F1480C38006840B977
:10238000EF48001F006820B9ED480838006800B920
:10239000CB46EB480068012820D1E9480C3800689A
:1023A000E0B9E748001F0068C0B9E5480838006890
:1023B000A0B90A2000F02FFAE148006801280DD1E9
:1023C000DF480C38006848B9DD48001F006828B9AC
:1023D000DB480838006808B94FF0010BD84800689E
:1023E00008BBD7480C38006801281CD1D448001F0E
:1023F0000068C0B9D24808380068A0B90A2000F0C7
:102400000AFACF48006870B9CD480C380068012836
:1024100009D1CB48001F006828B9C94808380068AE
:1024200008B94FF0020BC648006808BBC4480C3816
:102430000068E8B9C248001F0068012818D1C048E8
:1024400008380068A0B90A2000F0E5F9BC48006827
:1024500070B9BB480C38006850B9B948001F006813
:10246000012805D1B6480838006808B94FF0030BB9
:10247000B348006808BBB2480C380068E8B9B048F7
:10248000001F0068C8B9AE4808380068012814D198
:102490000A2000F0C0F9AA48006870B9A8480C38B2
:1024A000006850B9A648001F006830B9A448083831
:1024B0000068012801D14FF0040BA14800680128F1
:1024C00022D19F480C38006801281DD19C48001F6C
:1024D0000068C8B99A4808380068A8B90A2000F00E
:1024E0009AF99748006801280ED195480C38006881
:1024F000012809D19248001F006828B9904808387F
:10250000006808B94FF0050B8D48006818BB8C486F
:102510000C380068F8B98A48001F006801281AD1F1
:10252000874808380068012815D10A2000F073F99F
:102530008348006878B982480C38006858B98048E8
:10254000001F0068012806D17D480838006801286E
:1025500001D14FF0060B7A480068012822D1784853
:102560000C380068F0B97648001F0068D0B974488C
:1025700008380068012815D10A2000F04CF970488D
:10258000006801280ED16E480C38006850B96C48BC
:10259000001F006830B96A4808380068012801D176
:1025A0004FF0070B6648006818BB65480C38006898
:1025B00001281ED16248001F0068012819D1604817
:1025C00008380068A8B90A2000F025F95C480068BE
:1025D00078B95B480C38006801280AD15848001FB8
:1025E0000068012805D156480838006808B94FF03E
:1025F000080BBBF1090F76D2DFE80BF005081B2EA4
:10260000415481B7BE0000200390BFE01423012293
:10261000C8210420FEF7B7FA022C01D0032C01D107
:1026200009F10109B9F1050F01D10020039001243E
:10263000ACE014230122C8210520FEF7A4FA012CE6
:1026400001D0042C01D109F10109B9F1050F01D123
:1026500000200390022499E014230122C8210520C0
:10266000FEF791FA012C01D0042C01D109F10109E6
:10267000B9F1050F01D100200390032486E0142353
:102680000122C8210420FEF77EFA022C01D0032C7F
:1026900001D109F10109B9F1050F01D10020039021
:1026A000042473E005210220FFF754FD0290254920
:1026B000029802F09BFE17D82349029802F096FD7B
:1026C00012D82249029802F0C3FE009002F0FEFBED
:1026D00007464FF066321E4B02F010FA054602F034
:1026E000CBF9824602E04EE04FF0500A53460222F8
:1026F000C8210320FEF747FAFEF721FD46E0052139
:102700000320FFF727FD01900E49019802F06EFEAD
:1027100020D80D49019802F069FD1BD80B4901989A
:1027200002F096FE009002F0D1FB05464FF06632B3
:10273000074B02F0E3F9074602F09EF982460BE0F0
:10274000108123420000DC4200007A430000E64290
:10275000666616404FF0500A53460222C8211046C2
:10276000FEF711FAFEF7EBFC10E0A0230122C821CE
:102770000420FEF708FA09E0A0230122C821052061
:10278000FEF701FA02E00020039000BF00BF00BF87
:10279000039800287FF4D9ADBDE8FF9F10B56FF016
:1027A000040000F074F92E4800682E49B0FBF1F0E7
:1027B0002D4908700846007800EB4001C1EBC010BD
:1027C0004FF6FF7101EAC0002849088010BD01469C
:1027D000254A12784A434FF0E0235A6100229A6159
:1027E0001A46126942F001021A6100BF4FF0E0225E
:1027F000106900F001021AB100F48032002AF5D00D
:102800004FF0E022126922F001024FF0E0231A613A
:1028100000229A6170470146144A12884A434FF0D9
:10282000E0235A6100229A611A46126942F00102BD
:102830001A6100BF4FF0E022106900F001021AB1E6
:1028400000F48032002AF5D04FF0E022126922F025
:1028500001024FF0E0231A6100229A6170470000E4
:102860000000002000127A004008002042080020EA
:10287000014600BF704700BF494A128802F040027B
:10288000002AF9D0C2B2464B1B1D1A80704710B502
:1028900086B00446012144F2040000F033FC4FF4FA
:1028A0000070ADF8140003208DF8160018208DF884
:1028B000170005A93B4800F069F94FF48060ADF8B6
:1028C000140004208DF8170005A9364800F05EF9C1
:1028D00025208DF8000003208DF801008DF80200FE
:1028E00001208DF80300684600F087F8019400206D
:1028F000ADF80800ADF80A00ADF80C00ADF8100016
:102900000C20ADF80E0001A9254800F0A2FC012220
:1029100040F22551224800F034FD0121204800F00A
:1029200024FD06B010BD10B540F225511C4800F042
:102930000DFE10B31A4800F089FDC4B21A48008891
:1029400000F40040C8B91848008800F4804060B125
:102950000A2C03D000201449088020E01248008887
:1029600040F400401049088019E00D2C06D10E48B3
:10297000008840F480400C49088010E00A48008834
:10298000C0F30D0009490C5407480088401C064953
:10299000088008460088C72801DD0020088010BD97
:1029A000003801400008014048080020900800203D
:1029B0000948804709480047FEE7FEE7FEE7FEE7D3
:1029C000FEE7FEE7FEE7FEE7FEE7FEE7044805490F
:1029D000054A064B70470000FB040008310100085F
:1029E000B8090020B80F0020B80B0020B80B002059
:1029F00031490143314A1160704770B5002100230D
:102A00000F22C47804B32D4C246804F4E064C4F5A8
:102A1000E064210AC1F10403CA40447804FA03F1D6
:102A20008478144021430901254C0678A155047887
:102A300004F01F050124AC4005786D11AD0005F1CF
:102A4000E025C5F8004109E0047804F01F050124E1
:102A5000AC401C4D0678761145F8264070BD1A4AE8
:102A60000A400243154B1B1F1A60704739B1134AC5
:102A7000121D12680243114B1B1D1A6006E00F4A1B
:102A8000121D126882430D4B1B1D1A6070470428EB
:102A900008D14FF0E021096941F004014FF0E02234
:102AA000116107E04FF0E021096921F004014FF0C6
:102AB000E0221161704700000000FA050CED00E013
:102AC00000E400E080E100E080FFFF1F10B5044655
:102AD000CC48844208D10121042000F02DFB0021C4
:102AE000042000F029FB46E0C748844208D10121B8
:102AF000082000F021FB0021082000F01DFB3AE037
:102B0000C248844208D10121102000F015FB0021A9
:102B1000102000F011FB2EE0BD48844208D10121B5
:102B2000202000F009FB0021202000F005FB22E01E
:102B3000B848844208D10121402000F0FDFA00216C
:102B4000402000F0F9FA16E0B348844208D1012190
:102B5000802000F0F1FA0021802000F0EDFA0AE078
:102B6000AE48844207D10121801500F0E5FA00212A
:102B7000A01500F0E1FA10BD10B50121084600F0E3
:102B8000DBFA0021012000F0D7FA10BD2DE9F04159
:102B9000024600250026002000230024002791F88B
:102BA00003C00CF00F0591F803C00CF0100CBCF141
:102BB000000F03D091F802C04CEA050591F800C05F
:102BC000BCF1000F31D0146800202BE04FF0010C55
:102BD0000CFA00F3B1F800C00CEA03069E4220D1C3
:102BE00083004FF00F0C0CFA03F7BC4305FA03FC0B
:102BF0004CEA040491F803C0BCF1280F06D14FF051
:102C0000010C0CFA00FCC2F814C00AE091F803C0F1
:102C1000BCF1480F05D14FF0010C0CFA00FCC2F8D2
:102C200010C0401C0828D1D31460B1F800C0BCF11A
:102C3000FF0F34DD546800202EE000F1080C4FF047
:102C4000010808FA0CF3B1F800C00CEA03069E4232
:102C500021D183004FF00F0C0CFA03F7BC4305FAA7
:102C600003FC4CEA040491F803C0BCF1280F05D121
:102C700000F1080C08FA0CF8C2F8148091F803C0AF
:102C8000BCF1480F07D100F1080C4FF0010808FA19
:102C90000CF8C2F81080401C0828CED35460BDE860
:102CA000F0814FF6FF710180022181700421C17013
:102CB00070470246002093680B400BB1012000E0F2
:102CC000002070470146886880B2704702460020A5
:102CD000D3680B400BB1012000E000207047014693
:102CE000C86880B2704701617047416170470AB19E
:102CF000016100E041617047C16070474FF480326C
:102D00000A438261816182618269826970470246F9
:102D10000020434B18684FF68073184040EA0210B9
:102D200008433F4B186070473E49C8617047F0B593
:102D30000A46002300240021002500F00046B6F1D9
:102D4000004F02D1364EF16901E0354E7168C0F393
:102D5000034583B200F44016B6F5401F08D121F0B8
:102D600070612F4E766826F070662D4F7E6012E0FF
:102D700000F48016B6F5801F06D1032606FA05F486
:102D8000A14341F0706106E0460D360103FA06F6F4
:102D9000B14341F0706122B1460D360103FA06F6E7
:102DA000314300F00046B6F1004F02D11C4EF161F4
:102DB00001E01B4E7160F0BD30B500228B071C0F87
:102DC0000F2303FA04F2164B08338C1053F8243007
:102DD0009343134C08348D1044F8253023468C104F
:102DE00053F824308C07240F00FA04F423430C4CCE
:102DF00008348D1044F8253030BD0A49DC310860B4
:102E00007047000000080140000C01400010014024
:102E10000014014000180140001C01400020014046
:102E20000000014000002042DF48006840F001003F
:102E3000DD49086008464068DC490840DA494860D6
:102E400008460068DA490840D74908600846006823
:102E500020F4802008600846406820F4FE004860A6
:102E60004FF41F0088607047CF49096821F4803112
:102E7000CD4A11601146096821F480211160B0F536
:102E8000803F03D0B0F5802F0ED106E0C649096817
:102E900041F48031C44A116007E0C349096841F434
:102EA000A021C14A116000E000BF00BF704710B50B
:102EB00001460022002300204A11012A02D1BA4C07
:102EC000236806E0022A02D1B74C236A01E0B64C1F
:102ED000636A01F01F02012494401C400CB10120E0
:102EE00000E0002010BD38B500200090002400252F
:102EF00000BF3120FFF7DBFF05460098401C009023
:102F00000098B0F5A06F01D0002DF2D03120FFF76E
:102F1000CEFF08B1012400E00024204638BD014660
:102F20000020A14A106820F0F80040EAC1001060BB
:102F30007047A04908607047024600209A4B5868C5
:102F400020F47C1042EA01031843974B5860704705
:102F500098490866704701460020934A506820F05F
:102F600003000843506070478F48406800F00C0031
:102F70007047014600208C4A506820F0F00008435A
:102F80005060704701460020874A506820F4E06096
:102F900008435060704701460020834A506820F47F
:102FA000605040EAC1005060704729B17E4A527AB1
:102FB00002437D4B5A7204E07B4A527A82437A4B39
:102FC0005A7270477B49D83108607047014600202B
:102FD000754A506820F44040084350607047002113
:102FE000714A20321170704A82F82010012802D0F4
:102FF00004280AD104E001216B4A2032117005E057
:103000000521694A2032117000E000BF00BF7047FF
:103010006949086070476449096A0143624A11625C
:103020007047654944390860704730B50021002277
:10303000002400235C4D6D6805F00C0121B10429CA
:1030400005D0082923D105E05C4D056022E05B4DE9
:1030500005601FE0544D6D6805F47012524D6D68A7
:1030600005F48034022505EB92421CB9544D5543BA
:1030700005600BE04C4D6D6805F400351DB1504DF9
:103080005543056002E04D4D5543056002E04B4D50
:10309000056000BF00BF444D6D6805F0F0010909EF
:1030A000484D6B5C0568DD4045603F4D6D6805F43B
:1030B000E061090A434D6B5C4568DD4085603A4D2F
:1030C0006D6805F46051C90A3E4D6B5C4568DD4092
:1030D000C560354D6D6805F44041890B3A4D6B5C18
:1030E000C568B5FBF3F5056130BD29B12E4A5269BB
:1030F00002432D4B5A6104E02B4A526982432A4B0A
:103100005A61704729B1284A92690243264B9A6155
:1031100004E0254A92698243234B9A61704729B1A2
:10312000214AD2690243204BDA6104E01E4AD26987
:1031300082431D4BDA61704729B11B4AD2680243B2
:10314000194BDA6004E0184AD2688243164BDA6001
:10315000704729B1144A12690243134B1A6104E003
:10316000114A12698243104B1A6170471249403963
:10317000086070470F49C86470470B49C8717047B1
:103180000948406A40F0807007494862704701462C
:103190000020054A92680A400AB1012000E00020A0
:1031A0007047014988727047001002400000FFF824
:1031B000FFFFF6FE000042428004424200127A0005
:1031C00000093D004A0800205A08002010B50446B6
:1031D000FB48844209D101218803FFF7ADFF00219C
:1031E0004FF48040FFF7A8FF32E0F648844209D14F
:1031F00001214804FFF7ADFF00214FF40030FFF735
:10320000A8FF25E0F048844209D101218804FFF796
:10321000A0FF00214FF48020FFF79BFF18E0EB4850
:10322000844209D10121C804FFF793FF00214FF424
:103230000020FFF78EFF0BE0E548844208D1012112
:103240000805FFF786FF00214FF48010FFF781FF8C
:1032500010BD2DE9F04786B005460E460024A24673
:1032600000BFA1460027B08900B100BF2F462C8ABD
:103270004CF6FF700440F08804432C82AC894EF673
:10328000F3100440B088318908437189084304432E
:10329000AC81AC8A4FF6FF400440B0890443AC8255
:1032A00001A8FFF7C2FEC648874202D1DDF810A090
:1032B00001E0DDF80CA0A88900F4004040B10AEB61
:1032C000CA0000EB0A1031684900B0FBF1F807E0D2
:1032D0000AEBCA0000EB0A1031688900B0FBF1F874
:1032E0006420B8FBF0F004012009642101FB10897F
:1032F000A88900F4004040B1322000EBC900B0FBC7
:10330000F1F000F00700044308E0322000EB091060
:103310006421B0FBF1F000F00F0004432C8106B0F3
:10332000BDE8F0874FF41651016000218180C18013
:1033300001810C21418100218181704710B5024635
:103340000020108A4FF2FF0318400B884C8823435B
:103350008C882343CC8823431843108210BD00215E
:10336000018041808180C180704721B1828942F40F
:103370000052828104E082894DF6FF731A408281F7
:103380007047F0B50346002400260025002040F6D3
:103390006A17B94200D100BF1846C1F3421401F0C8
:1033A0001F06012707FA06F5012C01D10C3004E0B5
:1033B000022C01D1103000E014301AB107682F43FD
:1033C000076002E00768AF430760F0BD1AB1838A67
:1033D0000B43838202E0838A8B4383827047028A95
:1033E0004FF6F0731A400282028A0A430282704743
:1033F00082894FF2FF731A40828182890A43828157
:10340000704721B1828942F00202828104E0828900
:103410004FF6FD731A4082817047028A4FF6DF73C0
:103420001A400282028A0A430282704721B1028A4C
:1034300042F48042028204E0028A4BF6FF731A4093
:1034400002827047C1F30802828070470146888873
:10345000C0F308007047818941F001018181704704
:10346000028BD2B20283028B42EA012202837047AE
:10347000028B02F47F420283028B0A43028370476D
:1034800021B1828A42F02002828204E0828A4FF6D1
:10349000DF731A408282704721B1828A42F01002A3
:1034A000828204E0828A4FF6EF731A40828270476C
:1034B00021B1828A42F00802828204E0828A4FF6B9
:1034C000F7731A408282704721B1828942F4004228
:1034D000828103E08289C2F30E028281704721B1AA
:1034E000828A42F40062828204E0828A4FF2FF7391
:1034F0001A4082827047828A4FF6FB731A4082829A
:10350000828A0A438282704721B1828A42F0020293
:10351000828204E0828A4FF6FD731A4082827047ED
:1035200002460020B1F5007F00D100BF13880B4098
:103530000BB1012000E00020704701F40072B2F5E9
:10354000007F00D100BFCA430280704770B50246B9
:10355000002400230025002040F66A16B14200D165
:1035600000BFC1F3421501F01F03012606FA03F361
:10357000012D02D19689334006E0022D02D1168A30
:10358000334001E0968A33400C12012606FA04F417
:103590001688344013B10CB1012000E0002070BD4A
:1035A00010B50022002340F66A14A14200D100BFEA
:1035B0000A1201249440A3B2DC43048010BD000031
:1035C000003801400044004000480040004C0040EA
:1035D0000050004010B50446FE48844208D1012145
:1035E000C014FFF7A9FD0021E014FFF7A5FDC4E01A
:1035F000B4F1804F08D101210846FFF7AAFD002150
:103600000120FFF7A6FDB8E0F348844208D101216C
:103610000220FFF79EFD00210220FFF79AFDACE09B
:10362000EE48844208D101210420FFF792FD0021D9
:103630000420FFF78EFDA0E0E948844208D1012173
:103640000820FFF786FD00210820FFF782FD94E0A7
:10365000E448844208D101211020FFF77AFD0021BF
:103660001020FFF776FD88E0DF48844208D1012171
:103670002020FFF76EFD00212020FFF76AFD7CE08F
:10368000DA48844208D101214014FFF755FD00219A
:103690006014FFF751FD70E0D548844209D1012143
:1036A000C804FFF749FD00214FF40020FFF744FD57
:1036B00063E0D048844209D101210805FFF73CFDB1
:1036C00000214FF48010FFF737FD56E0CA488442CE
:1036D00009D101214805FFF72FFD00214FF400100B
:1036E000FFF72AFD49E0C548844208D10121402066
:1036F000FFF72FFD00214020FFF72BFD3DE0C048E4
:10370000844208D101218020FFF723FD0021802081
:10371000FFF71FFD31E0BB48844208D1012180152D
:10372000FFF717FD0021A015FFF713FD25E0B648B0
:10373000844209D101210804FFF7FEFC00214FF467
:103740008030FFF7F9FC18E0B048844209D101212C
:103750004804FFF7F1FC00214FF40030FFF7ECFCC8
:103760000BE0AB48844208D101218804FFF7E4FC58
:1037700000214FF48020FFF7DFFC10BD00220288FB
:10378000944B98420ED0994B98420BD0B0F1804F99
:1037900008D0914B984205D0904B984202D0904B64
:1037A000984204D14FF68F731A404B881A438D4BC1
:1037B000984207D08C4B984204D04FF6FF431A40F2
:1037C000CB881A4302808B8883850B880385814BC5
:1037D00098420BD0854B984208D08B4B984205D02D
:1037E0008A4B984202D08A4B984201D10B7A0386C9
:1037F00001238382704770B5002400220023058CCA
:103800004FF6FE7635400584028C8388048B4FF694
:103810008F752C40B51E2C400D882C43751E2A40F8
:103820000D892A434D882A436A4DA8420BD06F4D1B
:10383000A84208D0744DA84205D0744DA84202D0C9
:10384000734DA84213D14FF6F7752A404D892A438C
:103850004FF6FB752A408D882A434FF6FF652B40B3
:103860004FF6FF552B408D892B43CD892B43838009
:103870000483CD888586028470BD70B50024002243
:103880000023058C4FF6EF7635400584028C838843
:10389000048B48F6FF752C404FF6FF452C400D88F1
:1038A0004FF6FF7606EA05252C434FF6DF752A40D2
:1038B0000D8906EA05152A434D8806EA05152A43AF
:1038C000444DA84202D0494DA8421DD14FF67F7504
:1038D0002A404D894FF6FF7606EA05152A434FF632
:1038E000BF752A408D8806EA05152A434FF6FF3535
:1038F0002B404FF2FF752B408D8906EA85052B433F
:10390000CD8906EA85052B4383800483CD8805870E
:10391000028470BD70B5002400220023058C4FF690
:10392000FF6635400584028C8388848B4FF68F7543
:103930002C404FF6FC752C400D882C434FF6FF555C
:103940002A400D894FF6FF7606EA05252A434D8861
:1039500006EA05252A431F4DA84202D0234DA8425E
:103960001DD14FF2FF752A404D894FF6FF7606EACA
:1039700005252A434FF6FF352A408D8806EA05259E
:103980002A434EF6FF752B404DF6FF752B408D896F
:1039900006EA05152B43CD8906EA05152B438380DE
:1039A0008483CD888587028470BD70B50022002392
:1039B0000024058C4EF6FF7635400584038C848800
:1039C000828B48F6FF752A404FF6FF452A400D8846
:1039D00020E00000002C01400004004000080040EE
:1039E000000C004000100040001400400034014072
:1039F000004C0140005001400054014000180040BC
:103A0000001C0040002000400040014000440140F4
:103A1000004801404FF6FF7606EA05252A434DF699
:103A2000FF752B400D8906EA05352B434D8806EAC4
:103A300005352B43FA4DA84202D0FA4DA84208D1D1
:103A40004BF6FF752C408D894FF6FF7606EA8515FB
:103A50002C4384808283CD88A0F84050038470BDBD
:103A6000828B4FF2FF331A408283828B4FF6FF73B3
:103A700003EA01231A4382837047F0B50C461546CA
:103A8000002200210026078C4EF6FF7C07EA0C0777
:103A90000784828B018C4FF6FF7707EA043640F6E5
:103AA000FF473A404FF6FF7707EA05273A434FF6BC
:103AB000FF7707EA03373A43D94FB8420ED0D94FC0
:103AC000B8420BD0B0F1804F08D0D74FB84205D0E4
:103AD000D64FB84202D0D64FB84206D14DF6FF7746
:103AE000394046F48057394305E047F6FF573940DF
:103AF00044F48057394382830184F0BD828B4FF6B2
:103B0000F3731A408283828B0A4382837047F0B535
:103B10000C461546002200210026078C4FF6FF6C4C
:103B200007EA0C070784828B018C4FF6FF7707EAC0
:103B300004264FF60C773A404FF6FF7707EA031753
:103B40002F433A43B64FB8420ED0B64FB8420BD0CF
:103B5000B0F1804F08D0B44FB84205D0B34FB8424F
:103B600002D0B34FB84206D14FF6FF57394046F462
:103B70008077394305E04FF2FF57394044F48077AE
:103B8000394382830184F0BD028B4FF2FF331A4028
:103B90000283028B4FF6FF7303EA01231A43028369
:103BA0007047F0B50C461546002200210026078C10
:103BB0004FF6EF7C07EA0C070784028B018C4FF667
:103BC000FF7707EA041640F6FF473A404FF6FF77C3
:103BD00007EA03373A434FF6FF7707EA05273A43E8
:103BE0008F4FB8420ED08F4FB8420BD0B0F1804FFC
:103BF00008D08D4FB84205D08C4FB84202D08C4FC0
:103C0000B84206D14FF6DF77394046F01007394306
:103C100005E04FF65F77394044F0100739430283DF
:103C20000184F0BD028B4FF6F3731A400283028BBE
:103C30000A4302837047F0B50C4615460022002166
:103C4000068C4FF6FE773E400684028B018C4FF6C1
:103C50000C7632407E1C06EA03162E433243704E29
:103C6000B0420ED06F4EB0420BD0B0F1804F08D0B2
:103C70006D4EB04205D06D4EB04202D06C4EB04297
:103C800006D14FF6FD76314044F00106314305E0A0
:103C90004FF6F576314044F001063143028301844A
:103CA000F0BD70B505460C465D4885420ED05D48B6
:103CB00085420BD0B5F1804F08D05B48854205D0D6
:103CC0005A48854202D05A48854200D100E000BFE0
:103CD000208850B92389A28861882846FFF7ABFF66
:103CE000E1882846FFF79EFF25E0208804280AD1B6
:103CF0002389A28861882846FFF753FFE188284678
:103D0000FFF742FF17E0208808280AD12389A288FC
:103D100061882846FFF7FBFEE1882846FFF7EEFEA4
:103D200009E02389A28861882846FFF7A6FEE1887A
:103D30002846FFF795FE70BD2DE9F04105460C467B
:103D400000260127608808B9022600E00026A08826
:103D5000012801D1022700E001272088A0B923898A
:103D6000A28861882846FFF766FFE1882846FFF7AA
:103D700059FF23893A4631462846FFF712FFE1886A
:103D80002846FFF701FF13E02389A28861882846AF
:103D9000FFF707FFE1882846FFF7F6FE23893A463A
:103DA00031462846FFF747FFE1882846FFF73AFFEC
:103DB000BDE8F0810A884B881A438B881A43CB8868
:103DC0001A430B891A434B891A438B891A43A0F86B
:103DD000442070474FF6FF71818000210180C1802F
:103DE0004180017270470021018041808180C18043
:103DF000018141818181C181704700210180418021
:103E0000012181800021C180018170470021018052
:103E100041808180C18001814181818170470000A2
:103E2000002C014000340140000400400008004024
:103E3000000C004021B1028842F00102028004E03F
:103E400002884FF6FE731A400280704731B1B0F815
:103E5000442042F40042A0F8442005E0B0F8442099
:103E6000C2F30E02A0F8442070471AB183890B43B5
:103E7000838102E083898B4383817047818270470D
:103E800041EA0203A0F8483070471AB183890B4316
:103E9000838102E083898B438381704701894FF6D8
:103EA000F8721140018170470A46002101894FF6DE
:103EB0008F73194011430181704730B504460D4698
:103EC00029462046FFF7F0FF208940F007002081B7
:103ED00030BD2DE9F04104460D4616461F46602DC3
:103EE00006D13B46012231462046FFF75AFE05E047
:103EF0003B46012231462046FFF79DFE29462046DB
:103F0000FFF7D2FF208940F007002081BDE8F08153
:103F100030B50C4600210189C9B24FF6FF7505EA9C
:103F20000325154325432943018130BD2DE9F04187
:103F300005460E4617469846002443463A46314603
:103F40002846FFF7E5FF2C894FF6F870044044F04F
:103F500007044FF68F70044044F070042C81BDE8D4
:103F6000F081F0B504460D4616461F463B463246E4
:103F700029462046FFF7CCFF208940F4804020816D
:103F8000F0BD0185828270470A46002101884FF604
:103F90008F731940114301807047F0B50C461546E8
:103FA0001E460021002200230189028B038C4FF65C
:103FB000F877394021434FF6FC473A4040F2011769
:103FC0003A434FF6DD773B404FF6FF7707EA061797
:103FD0002F433B43018102830384F0BD0A46002145
:103FE000018B4FF68F7319401143018370470A46C6
:103FF0000021018B48F6FF7319404FF6FF7303EA67
:1040000002231943018370470A460021818B4FF632
:104010008F7319401143818370470A460021818BB9
:1040200048F6FF7319404FF6FF7303EA0223194362
:104030008183704721B1028842F08002028004E04F
:1040400002884FF67F731A400280704721B1828840
:1040500042F00402828004E082884FF6FB731A402B
:104060008280704721B1828842F00802828004E099
:1040700082884FF6F7731A408280704721B1828898
:1040800042F00102828004E082884FF6FE731A40FB
:10409000828070470A460021018B4FF6F773194062
:1040A0001143018370470A460021018B4FF2FF73D1
:1040B00019404FF6FF7303EA022319430183704747
:1040C0000A460021818B4FF6F77319401143818313
:1040D00070470A460021818B4FF2FF7319404FF65B
:1040E000FF7303EA02231943818370470A460021C4
:1040F000018B4FF6FB7319401143018370470A4649
:104100000021018B4FF6FF3319404FF6FF7303EA8E
:1041100002231943018370470A460021818B4FF621
:10412000FB7319401143818370470A460021818B3C
:104130004FF6FF3319404FF6FF7303EA022319438A
:10414000818370470A460021018B4FF67F73194027
:104150001143018370470A460021018BC1F30E0110
:104160004FF6FF7303EA02231943018370470A469F
:104170000021818B4FF67F73194011438183704773
:104180000A460021818BC1F30E014FF6FF7303EA4B
:1041900002231943818370470A460021018C4FF6A0
:1041A000FD7319401143018470470A460021018CB8
:1041B0004FF6F77319401143018470470A460021F6
:1041C000018C4FF6DF7319404FF6FF7303EA0213B9
:1041D0001943018470470A460021018C4FF67F7312
:1041E00019404FF6FF7303EA021319430184704725
:1041F0000A460021018C4FF6FF5319404FF6FF731A
:1042000003EA02231943018470470A460021018C06
:104210004FF2FF7319404FF6FF7303EA022319436D
:10422000018470470A460021018C4DF6FF73194046
:104230004FF6FF7303EA023319430184704730B528
:10424000002301248C40A3B2048C9C430484048C7E
:1042500002FA01F5ADB22C43048430BD30B5002321
:1042600004248C40A3B2048C9C430484048C02FA82
:1042700001F5ADB22C43048430BD70B50346002077
:1042800000241846183001258D40ACB21D8CA54382
:104290001D8409B1082909D100EB6100056825F0EA
:1042A000700505600568154305600EE00D1FC5F338
:1042B0004E052844056825F4E045056005684FF67D
:1042C000FF7606EA02263543056070BD21B10288FB
:1042D00042F00202028004E002884FF6FD731A40A9
:1042E0000280704721B1028842F00402028004E09B
:1042F00002884FF6FB731A400280704721B1828812
:1043000042F08002828004E082884FF67F731A4078
:104310008280704702884FF6F7731A400280028845
:104320000A430280704782884FF68F731A4082805A
:1043300082880A438280704702894FF6F8731A40D8
:10434000028102890A430281704702894FF67F7316
:104350001A40028102890A430281704781847047B2
:1043600081857047818670470187704781877047D4
:10437000A0F84010704702884FF6FF431A400280B1
:1043800002880A43028070470146888E70470146C2
:10439000088F70470146888F70470146B1F840008A
:1043A00070470146888C70470146088D7047024669
:1043B0000020138A0B400BB1012000E00020704761
:1043C000CA430282704730B5024600200023002411
:1043D000158A05EA0103958905EA010413B10CB1B8
:1043E000012000E0002030BDCA4302827047000077
:1043F000002044490860091D0860091D0860091D66
:10440000086041483F4914310860704700213D4928
:104410008279002A3AD00A46126803689A430B460A
:104420001A600A1D126803689A430B1D1A6002790C
:1044300011440A6803681A430A60324A0832126853
:1044400003689A432F4B08331A601A1D12680368D9
:104450009A432C4B0C331A604279102A0ED11A1F42
:10446000126803681A43274B08331A601A1D126832
:1044700003681A43234B0C331A600DE0214942793B
:1044800011440A6803681A430A6005E0027911447E
:104490000A6803689A430A6070470021016001714D
:1044A0000C21417100218171704716491031096852
:1044B0000143144A10321160704701460020114A2E
:1044C000143212680A400AB1012000E0002070474F
:1044D0000C49143108607047014600200022094B46
:1044E0001B6803EA0102074B14331B680B4013B12E
:1044F0000AB1012000E00020704702491431086031
:104500007047000000040140FFFF0F0070470000EB
:104510000FB4044910B503AA029800F009F810BCC2
:104520005DF814FB440800207047704770477047DF
:10453000074B70B50D467B4400F011F80446284641
:1045400000F020F810B14FF0FF3070BD204670BD74
:104550003DE3FFFF01694A1C02610878704700B51E
:104560008FB0CDE901310021059105497944CDE9AC
:1045700003101146684600F02EF80FB000BD000091
:10458000E5FFFFFF007B00F080007047754600F0FC
:104590003DF8AE4605006946534620F007008546C3
:1045A00018B020B5FEF712FABDE820404FF0000623
:1045B0004FF000074FF000084FF0000B21F007010B
:1045C000AC46ACE8C009ACE8C009ACE8C009ACE84E
:1045D000C0098D4670472DE9F04106460024D6E912
:1045E0000170F5688046304603E04146B847641CD8
:1045F0003046A8470028F8D12046BDE8F08104469F
:10460000AFF300802046FBF7FAFD0000004870473A
:104610005809002021F00042A2F16052B2F5801F3B
:1046200001F0004328BFD2F17F6C0BD95FEA001C78
:1046300043EAC20242EB507018BF704728BF20F017
:1046400001007047B2F5801FBCBF184670474FEAA3
:10465000410C1CF5001F02D2084600F0C2BE70B526
:1046600000F0F6FA00000089FFF7F6BF4FF00040B7
:10467000A0F580007047000010B591EA030F48BF15
:1046800083F0004300F14083841A71EB030C05D2E0
:10469000121943EB0C03001B61EB0C01DFF824E162
:1046A0004FEA1154A4EB135C1EEA430F18BF9EEAB5
:1046B000445F73D023EA0E03DCF1200E21EA04519B
:1046C00043F4801332D322FA0CFE10EB0E0023FACF
:1046D0000CFE41EB0E01CCF1200E03FA0EFE10EBA6
:1046E0000E0051F10001B1F5801FCCF1200E32D245
:1046F00001EB045112FA0EF2BDE8104058BF7047AA
:10470000401C38BF5FEA420218BF7047002814BF40
:1047100020F0010041F100014FEA410313F5001FB1
:1047200038BF7047A1F1C04100F0E0BA012A43EB65
:104730000302ACF1200CDCF11F0E32BF4FF0000E73
:1047400023FA0CF310EB030041EB0451B4EB115FBF
:10475000D0D0A1EB045101F5801149085FEA300087
:1047600001EB04510ED350F1000038BF12FA0EFED7
:1047700008D1BDE81040C9E7401C38BF5FEA4202DB
:10478000CAD1C3E7BDE810404FEA410313F5001F4B
:1047900038BF7047A1F1C04100F0A8BA9EEA445F5B
:1047A00008D011EA5E0FBDE8104004BF01F00041DF
:1047B00000207047BDE8104070B500F049FA00BF16
:1047C00064FBBE3E0000E0FF2DE9C04130B4DFF8DD
:1047D000A0C23CEA111418BF3CEA131400F0EC80AC
:1047E00081EA03051CEA111444EAD57418BF1CEAD7
:1047F000131500F0C780A4EB05044FF0004545EA0F
:10480000C12145EAC32341EA505143EA525304F11E
:104810007F74994204F500344FEAC0204FEAC22267
:1048200008BF904200F09C804FEA13650FF24016DB
:10483000765D4FEA134506FB05F7C7F1807706FB67
:1048400007F74FEAD737A7FB03687642C8F58038E9
:10485000A7FB06CE38BFA8F1010807FB08E64FF01A
:10486000000EA6FB028CE6FB03CEDCF1000CCEF1C1
:10487000004E38BFAEF1010EA6FB0C584FF00007FA
:104880004FF00005E6FB0E87A1FB08C6A0FB07CE94
:1048900016EB0E0645F10005E1FB076515F1E04E4C
:1048A0007EBFA4F580345FEA46066D4116F18007AD
:1048B00045F100054FEA17274FEA066647EA056704
:1048C000A6F1DE46B6F1805F4FEA15251FD93846BE
:1048D00024F0010C05EBC471BCF1FE6F01EB0C116F
:1048E00002D8F0BCBDE8008124425CBF01F5801E07
:1048F0009EEAC47F02D4F0BCBDE80081244238D4D3
:10490000F0BCA1F1C041BDE8004100F0EFB94FEAB1
:10491000D22242EA43524FEAD323A7FB02864FEA50
:10492000D02040EA415007FB03661EEA0E0F4FEA13
:10493000D12105FB026658BFA6EB0056B6EB005628
:104940004FEA520E4EEAC37E18EB0E0E56EB530E94
:10495000BDD518EB02085E417F1C55F10005B6E796
:104960004FF480154FF000074FF000064FF000089D
:10497000ADE7F0BC4FF0000001F1C04101F0004193
:10498000BDE8008111EA0C1F0CEA131500D00CE001
:1049900013EA0C1F00F025804FF00000F0BC81EA04
:1049A000030101F00041BDE80081F0BCBDE8004119
:1049B00081EA030100F09AB9F0BCBDE8004170B58E
:1049C00000F046F9097EFC3E00F007B881EA0301D9
:1049D0004FF0000001F00041704781EA030100F050
:1049E00085B9F0BCBDE800414FF000002149704797
:1049F000FFFDFBF9F7F5F4F2F0EEEDEBE9E8E6E4A4
:104A0000E3E1E0DEDDDBDAD8D7D5D4D3D1D0CFCD2A
:104A1000CCCBCAC8C7C6C5C4C2C1C0BFBEBDBCBB63
:104A2000BAB9B8B7B6B5B4B3B2B1B0AFAEADACAB5E
:104A3000AAA9A8A8A7A6A5A4A3A3A2A1A09F9F9E38
:104A40009D9C9C9B9A9999989797969595949393EA
:104A5000929191908F8F8E8E8D8C8C8B8B8A898981
:104A60008888878786858584848383828281818004
:104A70000000FF070000F87F4FEA41034FEA53535D
:104A8000A3F58063D3F11E03C8BFD3F1210C0CDD65
:104A90004FF0004242EAC12242EA505232FA03FC8D
:104AA0008CEAE17CACEBE1707047102BC4BF0020B6
:104AB000704703F5787CBCF1FF3F04D06FF00042F3
:104AC00082EA2100704770B500F0C2F84992248054
:104AD00000207047F2E7B0FA80F310FA03F10AD031
:104AE000C3F11D0303F580634FEA41504FEA0352BF
:104AF00002EBD12170474FF000007047DFF848C14A
:104B000070B51CEA111E1EBF1CEA13159EEA0C0F9D
:104B100095EA0C0F00F06F8081EA030423EA4C133E
:104B20004EEAD47E21EA4C1141F4801143F4801303
:104B3000AE44A1FB024CA0FB0365AEF17F7E3619AB
:104B400055EB0C05A1FB034C4CF10003A0FB021C30
:104B500016EB0C06654153F10003094218BF46F0FD
:104B6000010613F4007F0BD14FEA03314FEA053001
:104B7000340341EA155140EA16506FF003020AE08F
:104B80004FEAC3214FEAC520F40241EA555140EAF9
:104B900056506FF0020202EB2E4201EB025585EAFD
:104BA000CE710AD05FEA440C18BF24F0004450F1E3
:104BB000000041F1000120EAD47040F2FE7C624521
:104BC00000D270BDA84214BF4FF080444FF0404463
:104BD000002E08BF0024BEF1806FA8BFA1F1C04124
:104BE000BDE8704080F282804FF0000001F1C041CA
:104BF00001F0004170479EEA0C0F0CEA131518BF34
:104C000095EA0C0F06D04FF0000081EA030E0EF07B
:104C1000004170BD00F01CF88900013E00F007B8AB
:104C200000F009B84FEA430C5FEA5C5C08D081EA07
:104C3000030100F05BB84FEA410C5FEA5C5CF6D11F
:104C40004FF00000014970470000FF070000F87FA7
:104C50000EF1020E2EF0030E5EF8046B364205D400
:104C6000012A43EB030515F5001F12D8012841EB7B
:104C7000010C1CF5001F0CD80ED14FEAD17C15F5A4
:104C8000001F0CEB4C0C0CF1020C08BF4CEBD37C5E
:104C900004E04FF0080C01E04FEAD37C0CEB4C052C
:104CA00026FA05F606F00706B6F1040C06D20EEB5E
:104CB000860CBDE870404CF0010C6047DFE80CF05A
:104CC000090B02024FF000414FF00000A1F5002156
:104CD00070BD19461046012851EB010418BFD4F5E8
:104CE000001484BF002001F0004170BD0808A0F549
:104CF00000114FEA3101704710B591EA030F48BF28
:104D000083F000433FF5C0AC841A71EB030C07D26B
:104D100012198CF0004C43EB0C03001B61EB0C01EF
:104D2000DFF8A4E14FEA1154A4EB135C1EEA430F31
:104D300018BF9EEA445F00F0B08023EA6E0352423F
:104D400021EA0451C3EB6E0338BF5B1EDCF1200E79
:104D500025D322FA0CFE10EB0E0043FA0CFE41EBB9
:104D60000E01CCF1200E03FA0EFE10EB0E0051F1F5
:104D70000001CCF1200E29D412FA0EF201EB0451FD
:104D8000BDE8104058BF7047401C1CBFB2F1004F37
:104D9000704700280CBF491C20F00100704712EB3F
:104DA000020E43EB030218BF4FF0010E4EEA42021F
:104DB000ACF1200CDCF11E0E54D943FA0CFE10EBC2
:104DC0000E0051F1FF31CCF11E0ED5D50EF1010EC2
:104DD00012FA0EFE404141EB010101EB445C5FEA37
:104DE0005C5C10D910EBDE7001EB045138BFBEF1F2
:104DF000004FBDE8104018BF704700280CBF491C89
:104E000020F00100704730D24FEAD42C11F5001188
:104E100024F400641BD0B1FA81F20B3AA41AA41E48
:104E2000D2F12003914030FA03F31943904001EB93
:104E3000CC71002C01EB0451BDE81040A8BF7047B5
:104E400001F1C0414FF0000001F000417047B0FA9D
:104E500080F310FA03F100D110BDE41A173C4805A5
:104E6000C90AE4E701EB045110BD491001EB0451FC
:104E7000BDE810404FEA300002E04FF000017047FB
:104E80004A0008BF0042F8D0B2F5001F28BF7047A3
:104E900001F000414FF0000070479EEA445F07D0E8
:104EA00011EA5E0FBDE8104004BF002100207047EA
:104EB000BDE8104070B5FFF7CBFE00BF40DFF63E07
:104EC00083F00041104670470000E0FF43004FEAC6
:104ED000D30C4FEA3C0C43401FBF40070CF160511C
:104EE00013F0FE4F70471CF0006F03D100200CF050
:104EF000004170470CF0004343EA507010B540EA9F
:104F0000CC0000F028FA00BF000000924FEA000138
:104F1000FFF7ECBE4FF000414FF00000A1F500217B
:104F20007047000090EA010F48BF81F0004100F196
:104F30009682421A3CBF801A89184FEAD0524FF02D
:104F40007F4C1CEA410FA2EBD15318BF9CEA026FC1
:104F500000F03B804FF0004C4CEA00204CEA01216D
:104F600021FA03FC10EB0C0C1ED202F1FF325FEAB7
:104F70001C2040EBC25038BF70471CF07F0F4FEA37
:104F8000400C18BFBCF17F4F38BF7047C3F12003FE
:104F9000994008BF20F00100BCF17F4F38BF704737
:104FA000A0F1C04000F01DBA4FEA3C00000A40EBFF
:104FB000C25028BF1CF0FF0F4FEA400CE6D018BFCC
:104FC000BCF17F4F38BF7047EAE79CEA026F05D01B
:104FD00010EA5C0F08BF00F00040704710B500F009
:104FE000BAF900BF64FBBE3E401058BFC0F140405C
:104FF000491058BFC1F140418142EFF30080704732
:105000004FF47F0C1CEAD0121EBF1CEAD11392EAA7
:105010000C0F93EA0C0F00F0858090EA010F48BF57
:1050200042F4807240F4000C41F400002CF07F4107
:1050300020F07F4000B58142A2EB03020FF2081C72
:10504000ACEB504EC0F100009EF800E04FEA4E0E6F
:1050500000FB0EFC38BF49004FEA2C1C02F5FA0297
:105060000CFB0EF34FEACE1E4FEA112C4FEAC12182
:105070000EEB635E42EB22420EFB0CFC4FEA1C532C
:1050800000FB03114FEA112C4FEA01310EFB0CFC1F
:105090004FEADC4C00FB0C11C14228BF09184CEB55
:1050A00003335DF804EB10EB410143EBC250B2F562
:1050B0007C0F38BF704729D512F0F00F1CBF00F1EC
:1050C000C04000F00040704700818283848586875D
:1050D00088898B8C8D8E8F919293959697999A9CB7
:1050E0009D9FA0A2A3A5A7A8AAACAEB0B2B3B5B726
:1050F000B9BCBEC0C2C5C7C9CCCED1D4D7D9DCDFFC
:10510000E2E6E9ECF0F3F7FAFE0000004FEA400CAB
:105110000CF1807CBCF17E4F28BF7047B0F1C040DD
:1051200000F05FB990EA010F0CEAD11348BF42F4D6
:105130008072624538BF634507D213F47F0F16D0E3
:1051400080EA010000F00040704710B500F003F95C
:10515000097EFC3E00F005B880EA010000F0004046
:10516000704780EA010000F0004000F03AB912F404
:105170007F0F04BF0248704780EA010000F031B998
:105180000000C07F41000B0ED3F19E0208D950F4FD
:1051900000034FEA032323FA02F048BF404270475E
:1051A00010B500F0D8F800BF499224800020704765
:1051B0006FF0004282EA20007047000010F00041CA
:1051C00048BF4042B0FA80F310FA03F2C3F19D03E6
:1051D0000BD051EAC35101EB1220530638BF704780
:1051E00000F1010008BF20F00100704750EA010CF7
:1051F00000F113801CF5000F58BFBCF5000F01D45F
:105200008842704707D710F5000F58BF11F5000FFF
:1052100015D488427047894270471CF5000F04D5A9
:10522000BCF5000FF7D5814270474FF0807C1CEB36
:10523000400F38BF1CEB410F01D28142704710B5BF
:1052400000F089F8922449004FF000504FF080514F
:10525000FFF7CABE4FF47F0C1CEAD0121EBF1CEA37
:10526000D11392EA0C0F93EA0C0F00F0478090EAFA
:10527000010F48BF42F480724FF0004C4CEA00200E
:105280004CEA012102EB0302A0FB0113A2F500028C
:10529000002918BF43F001035B0028BF4FEA330326
:1052A00042EB22425FEA132C4CEBC2502EBFBCEB08
:1052B000436FB2F57C0F70474FEA036CBCF1004FAF
:1052C00008BF20F00100B2F57C0F38BF70470BD546
:1052D00082F0FF0212F5803FC8BF704700F1C04066
:1052E000D8BF00F00040704700F5000C5FEA4C0C9E
:1052F00048BF7047B0F1C04000F073B890EA010FAA
:105300000CEAD11348BF42F48072624538BF63454E
:1053100004D280EA010000F00040704710B500F0B0
:105320001AF800BF8900013E00F007B800F009B884
:105330005FEA410C5FEA1C6C08D080EA010000F0D3
:1053400050B85FEA400C5FEA1C6CF6D14FF00040A9
:10535000A0F5800070470EF1020E2EF0030E5EF8ED
:10536000044B244204D44FEA4102B2F17F4F11D8DA
:105370004FEA4003B3F17F4F0CD80ED14FEAD07CF7
:10538000B2F17F4F0CEB4C0C0CF1020C08BF4CEB54
:10539000D17C04E04FF0080C01E04FEAD17C0CEB2B
:1053A0004C0324FA03F404F00704B4F1040C06D20D
:1053B0000EEB840CBDE810404CF0010C6047DFE8B8
:1053C0000CF0070802024FF00040A0F5800010BD6D
:1053D0000846420018BFD2F1807288BF00F000403A
:1053E00010BDFF2141EAD050C005704751EA000CC2
:1053F00000F113801CF5000F58BFBCF5000F01D45D
:105400008142704707D711F5000F58BF10F5000F04
:1054100015D481427047894270471CF5000F04D5AE
:10542000BCF5000FF7D5884270474FF0807C1CEB2D
:10543000410F38BF1CEB400F01D28842704780EA11
:10544000010081EA000180EA0100FFF7F8BE0000D8
:1054500090EA010F48BF81F000413FF56AAD421A62
:1054600004D882F00042A0EB020011444FEAD0526F
:105470004FF07F4C1CEA410FA2EBD15318BF9CEABE
:10548000026F4AD04FF0004C4CEA00204CEA012158
:1054900021FA03FCB0EB0C0C0FD412F0FE0F36D047
:1054A0005FEA4C001DD5001240EBC25038BF704778
:1054B0001CF03F0F18BF70470BE0A2F101025FEA3A
:1054C0001C2040EBC25038BF70471CF07F0F18BF44
:1054D0007047C3F12003994014BF401E20F0010023
:1054E000704780084FEA122308BF7047B0FA80FC6B
:1054F000A2EB0C02CCF1280C60FA0CF093EA122F0C
:1055000004BF00EBC25070474FEAC3707047130AE4
:105510005FEADC1008BF7047F6E79CEA026F04D030
:1055200010EA5C0F08BF0020704710B5FFF713FFAB
:1055300040DFF63E81F00040704700005C550008F7
:1055400000000020600800006C01000858570008A7
:105550006008002058070000C80100081184A24A12
:1055600004400901020304060708090B1CF30D049B
:105570000B18350C040B10DA0A041AC456A9048B54
:10558000E108049A23048B8307044BFA06045A8328
:10559000045A1A044BBF05041A6D045A24041AE273
:1055A000C65AA6041A70041A3F041A120423E80308
:1055B0001AC2041A9E041A7D041A5E041A41041ABF
:1055C00026041A0D0423F6021ACA041AB6041A9203
:1055D000041A81041A71041A53041A38041A2C0488
:1055E0001A140423FE011AEA041AD8041AC7041A6A
:1055F000B7041AA8041A9A041A8D041A81041A709E
:10560000041A65041A56041A4D041A41041A38047F
:105610001A2D041A23041A19041A10041A07041A5A
:10562000020432FA32F032EA32E332DD32D832D2D8
:1056300032CD32C632C232BD32B832B432B032AC00
:1056400032A832A432A1329E329B329832963292E4
:105650003290328E328C3289328732853283328276
:105660003280327E327C327B3279327832773276D7
:10567000327532743273327232713270326F326E0E
:10568000326D5A6C04326B5A6A045A69045A6804BF
:105690005A67049A66045A6504DA64049A63040A31
:1056A0001562040A1D61040A1960040A555F043278
:1056B0005E325D325C325B325A3259325832573286
:1056C000563255325432523250324E324C324A32C5
:1056D000483246324432423240323E323C323A3232
:1056E000383236323532343233323232313230328D
:1056F0002F322E9A2D04DA2C040A152B040A192AAB
:10570000040A1929040A1D28040A2127040A252647
:10571000040A2925040A2D24040A3123040A352207
:10572000040A3921040A3D20040A411F040A491EC3
:10573000040A491D040A4D1C040A511B040A591A83
:10574000040A491904013E2D01020304042009063C
:08575000070809020406080025
:0400000508000131BD
:00000001FF
